:1000000072EF00F00D500F02F3CF01F0F4CF00F0CB
:100010001002F35000260E500F02F3500020026E23
:10002000CFEF00F0EA6A0F0EE96EEF500DE00A0E16
:10003000016E006A002EFED7012EFBD75F0E006E08
:10004000002EFED7EF2EF3D712000D6A0D500408D4
:1000500025E3926A3F0E896E936A0F0E8A6E969020
:100060009692969496968D6E020E0E6EFA0E0F6E06
:10007000D9DF0E2EFBD7926A896A936A8A6A9690B4
:10008000969296949696080E8D6E020E0E6EFA0E4D
:100090000F6EC8DF0E2EFBD70D2AD8D7DCEF00F08D
:1000A000016A026A006A036A105002E10F5018E008
:1000B000100E116ED8900D360E36003603361050E5
:1000C000035C02E10F50005C07E30F50005ED8A014
:1000D00003061050035ED88001360236112EEAD78F
:1000E000E6EF00F0F86AD09E700ED36E400E9B6E65
:1000F000D350C150C00B0F09C16E070EB46EC15072
:10010000C00B0F09C16E700ED36E400E9B6ED350A4
:100110000590076A066A096A086A0B6A0A6A0C6A25
:1001200005909468076A82CF06F09568096A83CFC4
:1001300008F0938881A803D0010E0C6E11D0938A29
:1001400081AA03D0020E0C6E0BD0938C81AC03D02D
:10015000030E0C6E05D0938E81AE02D0040E0C6E91
:100160000C2C07D0085006240A6E095007200B6E8D
:1001700031D00C50020807E10850065C0A6E0950A5
:1001800007580B6E27D00C5003080EE107C00EF085
:1001900006C00DF009C010F008C00FF033D702C040
:1001A0000BF001C00AF016D00C50040813E195685A
:1001B000835203E1058049D70DD007C00EF006C079
:1001C0000DF009C010F008C00FF06AD702C00BF0A4
:1001D00001C00AF005B021D0926A0AC089FF0B3035
:1001E0000E6E0A300D6E0E320D320E320D320E32A0
:1001F0000D320E320D320E320D32030E0E16936A90
:100200000DC08AFF0B300D6E0D323F0E0D1696900D
:0E0210009692969496960DC08DFF82D70300AD
:020000040030CA
:0E0000000008181E000581000FC00FE00F4021
:00000001FF
;PIC18F4620
;CRC=8F3E  CREATED="25-mar-17 01:11"
