:100000007EEF00F00D500F02F3CF01F0F4CF00F0BF
:100010001002F35000260E500F02F3500020026E23
:10002000D4EF00F0EA6A0F0EE96EEF500DE00A0E11
:10003000016E006A002EFED7012EFBD75F0E006E08
:10004000002EFED7EF2EF3D712000D6A0D500408D4
:1000500031E3926A3F0E896E8A8093908A829392EE
:100060008A8493948A8693968D8096908D829692B8
:100070008D849694020E0E6EFA0E0F6ED3DF0E2E46
:10008000FBD7926A896A8A9093908A9293928A9413
:1000900093948A9693968D9096908D9296928D9445
:1000A0009694020E0E6EFA0E0F6EBCDF0E2EFBD76C
:1000B0000D2ACCD7E8EF00F0016A026A006A036AF1
:1000C000105002E10F5018E0100E116ED8900D364E
:1000D0000E36003603361050035C02E10F50005C10
:1000E00007E30F50005ED8A003061050035ED880CF
:1000F00001360236112EEAD7F2EF00F0F86AD09EF0
:10010000700ED36E400E9B6ED350C150C00B0F09C2
:10011000C16E070EB46EC150C00B0F09C16E700ED8
:10012000D36E400E9B6ED350066A056A0790096A2B
:10013000086A0B6A0A6A0C6A07909468096A82CF97
:1001400008F095680B6A83CF0AF0936881CF0CF0B2
:10015000938881B802D00C2C09D00A500824056E6F
:100160000B500920066E010E0C6E40D0938A81BAA6
:1001700003D00C50020809E10A50085C056E0B50D0
:100180000958066E020E0C6E31D0938C81BC03D0E0
:100190000C50030810E109C00EF008C00DF00BC0B0
:1001A00010F00AC00FF02ED702C006F001C005F013
:1001B000030E0C6E1BD0938E81BE03D00C5004082E
:1001C00015E1040E0C6E9568835203E107803DD75C
:1001D0000DD009C00EF008C00DF00BC010F00AC021
:1001E0000FF06AD702C006F001C005F007B021D0B9
:1001F000926A05C089FF06300E6E05300D6E0E3214
:100200000D320E320D320E320D320E320D320E32F2
:100210000D32030E0E16936A0DC08AFF06300D6E66
:100220000D323F0E0D1696909692969496960DC0AE
:060230008DFF82D70300E0
:020000040030CA
:0E0000000008181E000581000FC00FE00F4021
:00000001FF
;PIC18F4620
;CRC=DBA9  CREATED="24-mar-17 18:22"
