:100000002AEF00F0EA6A0B0EE96EEF500DE00A0EDF
:10001000016E006A002EFED7012EFBD75F0E006E28
:10002000002EFED7EF2EF3D722EF00F0096A095019
:1000300004080EE3936A010E8A6E020E0A6EFA0E2F
:100040000B6EE0D70A2EFBD7936A8A6A092AEFD78C
:100050005DEF00F0F86AD09E700ED36E400E9B6E7E
:10006000D350C150C00B0F09C16E070EB46E066AA3
:10007000056A076A086A700ED36E400E9B6ED350F5
:10008000938681A604D008500724056E066A9388DB
:1000900081A804D00850075C056E066A938681A685
:1000A00005D007500802F350066A056E938681A6B4
:0E00B00004D09568835201E1B9D7E2D703006E
:020000040030CA
:0E0000000008181E000581000FC00FE00F4021
:00000001FF
;PIC18F4620
;CRC=72AB  CREATED="18-mar-17 20:02"
