:1000000054EF00F0EA6A0C0EE96EEF500DE00A0EB4
:10001000016E006A002EFED7012EFBD75F0E006E28
:10002000002EFED7EF2EF3D712000A6A0A500408FA
:1000300024E3926A8968936A870E8A6E96909692F4
:1000400096949696010E8D6E020E0B6EFA0E0C6E45
:10005000D9DF0B2EFBD7926A896A936A8A6A9690D7
:100060009692969496968D6A020E0B6EFA0E0C6E10
:10007000C9DF0B2EFBD70A2AD9D7AEEF00F00B5001
:10008000016A0A5C03E20AC000F00CD0006A080EA4
:100090000C6E0A3600360B50005CD8B0006E01368C
:1000A0000C2EF7D7AAEF00F0F86AD09E700ED36E30
:1000B000400E9B6ED350C150C00B0F09C16E070E8E
:1000C000B46E100E926E9690969296949696066ADC
:1000D000056A076A086A096A700ED36E400E9B6E45
:1000E000D350946882CF08F0956883CF09F0938647
:1000F000076A81B6072A9388076A81B8072A938A14
:10010000076A81BA072A938C076A81BC072A0750BD
:10011000080804E109500824056E066A0750100813
:1001200004E10950085C056E066A0750200805E1E5
:1001300008500902F350066A056E075040080DE1A9
:100140009568835202E171D709D008C00AF009C04E
:0E0150000BF095D7066A01C005F0C3D7030077
:020000040030CA
:0E0000000008181E000581000FC00FE00F4021
:00000001FF
;PIC18F4620
;CRC=E1E5  CREATED="20-mar-17 22:59"
