:100000003FEF00F0EA6A0C0EE96EEF500DE00A0EC9
:10001000016E006A002EFED7012EFBD75F0E006E28
:10002000002EFED7EF2EF3D722EF00F00A6A0A5017
:1000300004080EE3936A010E8A6E020E0B6EFA0E2E
:100040000C6EE0D70B2EFBD7936A8A6A0A2AEFD789
:1000500097EF00F00B50016A0A5C03E20AC000F05F
:100060000CD0006A080E0C6E0A3600360B50005C8D
:10007000D8B0006E01360C2EF7D792EF00F0F86A78
:10008000D09E700ED36E400E9B6ED350C150C00BED
:100090000F09C16E070EB46EFF0E946E956E066A60
:1000A000056A076A086A096A700ED36E400E9B6E75
:1000B000D350946882CF08F0956883CF09F0938677
:1000C000076A81B6072A9388076A81B8072A938A44
:1000D000076A81BA072A938C076A81BC072A93862C
:1000E00081A604D009500824056E066A938881A869
:1000F00004D00950085C056E066A938A81AA05D06F
:1001000008500902F350066A056E938C81AC0DD03D
:100110009568835202E18AD70AD008C00AF009C064
:100120000BF098D7066A01C005F0086AC2D7030031
:020000040030CA
:0E0000000008181E000581000FC00FE00F4021
:00000001FF
;PIC18F4620
;CRC=62FE  CREATED="19-mar-17 22:32"
