:100000006EEF00F00B500D02F3CF01F0F4CF00F0D3
:100010000E02F35000260C500D02F3500020026E29
:10002000B0EF00F0EA6A0D0EE96EEF500DE00A0E37
:10003000016E006A002EFED7012EFBD75F0E006E08
:10004000002EFED7EF2EF3D73BEF00F00B6A0B50DC
:10005000040820E39690969296949696070E8D6EDD
:10006000926A3F0E896E936A0F0E8A6E020E0C6EB4
:10007000FA0E0D6ED7D70C2EFBD7936A8A6A96902C
:100080009692969496968D6A926A896A936A8A6A1B
:100090000B2ADDD7BBEF00F0016A026A006A036A2F
:1000A0000E5002E10D5018E0100E0F6ED8900B3676
:1000B0000C36003603360E50035C02E10D50005C36
:1000C00007E30D50005ED8A003060E50035ED880F3
:1000D000013602360F2EEAD7C5EF00F0F86AD09E3F
:1000E000700ED36E400E9B6ED350C150C00B0F09E3
:1000F000C16E070EB46EC150C00B0F09C16E700EF9
:10010000D36E400E9B6ED350066A056A086A076A72
:100110000A6A096A9468086A82CF07F095680A6AD1
:1001200083CF09F0938881A806D009500724056E73
:100130000A500820066E938A81AA06D00950075CEF
:10014000056E0A500858066E938C81AC0DD008C01D
:100150000CF007C00BF00AC00EF009C00DF052D72A
:1001600002C006F001C005F0938E81AE12D09568F2
:10017000835202E16BD70DD008C00CF007C00BF022
:100180000AC00EF009C00DF087D702C006F001C00A
:1001900005F0926A05C089FF06300C6E05300B6EC3
:1001A0000C320B320C320B320C320B320C320B3263
:1001B0000C320B32030E0C16936A0BC08AFF0C6ACA
:1001C00006300B6E0B323F0E0B169690969296945D
:0A01D00096960BC08DFF9ED703002A
:020000040030CA
:0E0000000008181E000581000FC00FE00F4021
:00000001FF
;PIC18F4620
;CRC=A8A3  CREATED="23-mar-17 20:47"
