:100000003FEF00F0EA6A0B0EE96EEF500DE00A0ECA
:10001000016E006A002EFED7012EFBD75F0E006E28
:10002000002EFED7EF2EF3D722EF00F0096A095019
:1000300004080EE3936A010E8A6E020E0A6EFA0E2F
:100040000B6EE0D70A2EFBD7936A8A6A092AEFD78C
:1000500086EF00F00A50016A095C03E209C000F073
:100060000CD0006A080E0B6E093600360A50005C90
:10007000D8B0006E01360B2EF7D781EF00F0F86A8A
:10008000D09E700ED36E400E9B6ED350C150C00BED
:100090000F09C16E070EB46EFF0E946E956E066A60
:1000A000056A076A086A700ED36E400E9B6ED350C5
:1000B000946882CF07F0956883CF08F0938681A675
:1000C00004D008500724056E066A938881A804D0DE
:1000D0000850075C056E066A938A81AA05D007500E
:1000E0000802F350066A056E938C81AC0DD09568BA
:1000F000835202E19BD70AD007C009F008C00AF07A
:0E010000A9D7066A01C005F0076AD2D703002E
:020000040030CA
:0E0000000008181E000581000FC00FE00F4021
:00000001FF
;PIC18F4620
;CRC=3429  CREATED="19-mar-17 22:12"
