:1000000050EF00F0EA6A0C0EE96EEF500DE00A0EB8
:10001000016E006A002EFED7012EFBD75F0E006E28
:10002000002EFED7EF2EF3D72BEF00F00A6A0A500E
:10003000040820E39690969296949696070E8D6EFD
:10004000926A3F0E896E936A0F0E8A6E020E0B6ED5
:10005000FA0E0C6ED7D70B2EFBD7936A8A6A96904E
:100060009692969496968D6A926A896A936A8A6A3B
:100070000A2ADDD712000B50016A0A5C03E20AC0AB
:1000800000F00CD0006A080E0C6E0A3600360B50D9
:10009000005CD8B0006E01360C2EF7D7A8EF00F048
:1000A000F86AD09E700ED36E400E9B6ED350C15036
:1000B000C00B0F09C16E070EB46EFF0E946E956EE5
:1000C000066A056AC150C00B0F09C16E076A086A4B
:1000D000096A700ED36E400E9B6ED350A7DF9468F2
:1000E00082CF08F0956883CF09F09386076A81B6BE
:1000F000072A9388076A81B8072A938A076A81BA10
:10010000072A938C076A81BC072A0750080804E174
:1001100009500824056E066A938881A804D0095006
:10012000085C056E066A938A81AA05D00850090208
:10013000F350066A056E938C81AC0DD0956883529E
:1001400002E174DF0AD008C00AF009C00BF093D7AF
:0C015000066A01C005F0086AC1D7030070
:020000040030CA
:0E0000000008181E000581000FC00FE00F4021
:00000001FF
;PIC18F4620
;CRC=6BEB  CREATED="23-mar-17 19:58"
